S01A0000416363656C65726174696F6E53656E736F722E73726563C6
S11300000C9434000C9446000C9446000C94460066
S11300100C9446000C9446000C9446000C94460044
S11300200C9446000C9446000C9446000C94460034
S11300300C9446000C9446000C9446000C94460024
S11300400C9446000C9446000C9446000C94460014
S11300500C9446000C9446000C9446000C94460004
S11300600C9446000C94460011241FBECFEFD8E038
S1130070DEBFCDBF21E0A0E0B1E001C01D92A830F9
S1130080B207E1F70E9497000C94AA010C940000B7
S11300908091BC0087FFFCCF0895E9EBF0E08081FC
S11300A0808388E48093B80008950E944D0084E41E
S11300B08093BC00089584EA8093BC000E944800A9
S11300C08091B900089584E98093BC0008958093D9
S11300D0BB0084E88093BC000E9448008091B90072
S11300E00895CF93C82F0E945B008C2FCF910C945E
S11300F067008093BB0084E88093BC000E944800A2
S11301008091B900089584E88093BC000E9448005F
S11301108091B9008091BB00089584EC8093BC0069
S11301200E9448008091B9008091BB00089510920C
S11301300401259A87B1806387B9809164008F7721
S113014080936400D2E0C0E211E004E080910401F5
S1130150813009F44FC080F1823009F48EC08430BC
S1130160B9F72FEF33ED40E3215030404040E1F741
S113017000C0000085B18C2785B98FEF93ED20E393
S1130180815090402040E1F700C0000085B18C27E9
S113019085B940910501842F042E000C990B209100
S11301A00101821B910927FD939581970CF497C057
S11301B085B18C2785B98BC00E945500109304012A
S11301C03FEF41EE84E0315040408040E1F700C011
S11301D0000084E090E02FEF34E34CE02150304005
S11301E04040E1F700C0000025B12C2725B9019754
S11301F091F7ACCF80E30E94710080EA0E947900FD
S11302008FE50E94790080E00E94790080E00E94DE
S1130210790080E80E94790080E00E94790080E003
S11302200E9479000E94630080E30E9471008FE0C5
S11302300E9479000E945B0081E30E9479000E9481
S11302408300809300010E94630080910001833346
S113025011F42D9A3CC084E195B19C2795B93FEFE8
S113026041EE94E0315040409040E1F700C000007E
S1130270815091F7D093040169CF80E30E9471000B
S113028088EA0E94790081E30E9471000E948D0037
S1130290809305010E948D00809306010E948300D3
S11302A0809307010E94630084E090E02FEF39E619
S11302B048E1215030404040E1F700C0000025B142
S11302C02C2725B9019791F7009304013FCF8FEFB5
S11302D097EA21E6815090402040E1F731C0309107
S11302E00601832F032E000C990B20910201821B1F
S11302F0910927FD939581975CF085B18C2785B989
S11303003FEF47EA81E6315040408040E1F718C0B2
S113031020910701822F022E000C990B50910301AA
S1130320851B910957FD939581976CF085B18C27B6
S113033085B99FEF27EA31E6915020403040E1F73C
S113034000C0000097CF4093010130930201209335
S10B0350030190CFF894FFCFE4
S9030000FC
