:1000000029C043C042C041C040C03FC03EC03DC007
:100010003CC03BC03AC039C038C037C036C035C01C
:1000200034C033C032C0084AD73B3BCE016E84BCDB
:10003000BFFDC12F3D6C74319ABD56833DDA3D0042
:10004000C77F11BED9E4BB4C3E916BAAAABE00008B
:1000500000803F0011241FBECFE5D4E0DEBFCDBF3E
:1000600010E0A0E6B0E0E2E5FFE002C005900D92EE
:10007000A036B107D9F721E0A0E6B0E001C01D929B
:10008000A430B207E1F734D062C7BACF06B607FE94
:10009000FDCF089511B88CE080B90895FBDF84E4AA
:1000A00086BF089584EA86BFF1DF81B1089584E9AF
:1000B00086BF089583B984E886BFE8DF81B10895DB
:1000C000CF93C82FEFDF8C2FCF91F4CF83B984E883
:1000D00086BFDCDF81B1089584E886BFD7DF81B1B8
:1000E00083B1089584EC86BFD1DF81B183B10895D7
:1000F000CF93DF9300D000D0CDB7DEB7109287004A
:1001000010928600109295001092850010926F0058
:100110001092FD001092FC001092FB001092FA0069
:1001200010927500109274001092C4001092C300D7
:1001300003E010E044E6442E512C612C712C52E077
:10014000252E312C80918600909187008230910578
:1001500009F4FBC03CF4009781F08130910509F46B
:1001600071C0F4CF8430910509F468C20CF41DC24B
:100170008530910509F454C3E9CF87B3866087BB06
:1001800084B3807F84BB85B38F6085BBC19A86DFD3
:1001900010928200109281001092730010927200EF
:1001A00083B38C7029F43092FD002092FC0020C0B3
:1001B00083B38C70883029F41093FD000093FC0009
:1001C00017C083B38C70843041F434E0C32ED12C3B
:1001D000D092FD00C092FC000BC083B38C708C30B9
:1001E00039F425E0E22EF12CF092FD00E092FC00C3
:1001F00083B3837039F4FF24F394F0928800F09273
:10020000EA0019C083B38370823021F421E0209387
:1002100088000FC083B38370813029F48093EA0093
:100220001092880008C083B38370833021F4109249
:1002300088001092EA0081E090E09093870080931C
:10024000860080CF80ED3CDF89E140DF84E03EDF47
:1002500081E03CDF8091720039DF8091810036DFE0
:1002600026DF80ED2DDF88E331DF81E02FDF1FDF28
:1002700080ED26DF8BE62ADF89E028DF18DF80EDBE
:100280001FDF85E723DF81ED1BDF26DF90E0909302
:100290008400809383000BDF809183009091840021
:1002A0008E7710927100109270008836910511F5CA
:1002B00080917000909171004497BCF488B392E0F3
:1002C000892788BBAFEFB1EE24E0A150B0402040B9
:1002D000E1F700C0000080917000909171000196DC
:1002E0009093710080937000E3CF3092870020924A
:1002F00086001DC080917000909171000A97BCF437
:1003000088B332E0832788BB8FEF99E6A8E181505C
:100310009040A040E1F700C00000809170009091F3
:10032000710001969093710080937000E3CFC198A3
:10033000BFEF23E234EF80E0B150204030408040F6
:10034000D9F700C00000C19AFDCE80EDB9DE8AE386
:10035000BDDE81EDB5DEC0DE90E090938400809339
:100360008300A5DE8091830080FFECCE80EDA8DEC7
:100370008BE3ACDE81EDA4DEB5DE1092A7008093A6
:10038000A800B0DE2091A7003091A800282B309360
:10039000A8002093A700A6DE1092A9008093AA00CF
:1003A000A1DE2091A9003091AA00282B3093AA0049
:1003B0002093A90097DE1092AB008093AC008CDEF6
:1003C0002091AB003091AC00282B3093AC002093EF
:1003D000AB006DDE4091A7005091A800052E000CE7
:1003E000660B770B8091CF009091D000A091D10047
:1003F000B091D2006A017B01C80ED91EEA1EFB1E15
:10040000C701B601C092CF00D092D000E092D100D7
:10041000F092D2008090A9009090AA00092C000CC4
:10042000AA08BB08C090D300D090D400E090D500BB
:10043000F090D6008C0C9D1CAE1CBF1C8092D3008B
:100440009092D400A092D500B092D600C090AB009C
:10045000D090AC000D2C000CEE08FF082091D700C6
:100460003091D8004091D9005091DA00C20ED31ECD
:10047000E41EF51EC092D700D092D800E092D900B9
:10048000F092DA002091BB003091BC002F5F3F4F0B
:100490003093BC002093BB001092A8001092A700DC
:1004A0001092AA001092A9001092AC001092AB001A
:1004B0002436310509F046CEA30192010AD52983DD
:1004C0003A834B835C832093910030939200409356
:1004D000930050939400C501B401A3019201F9D493
:1004E00049015A0120938D0030938E0040938F0074
:1004F00050939000C701B601A3019201EAD4209362
:10050000E6003093E7004093E8005093E900CA0109
:10051000B90199D36B017C0169817A818B819C81BE
:1005200092D3A7019601A1D223E33AEF4EE85CE310
:10053000EFD26093000170930101809302019093C8
:100540000301C501B4017FD3A70196018ED223E335
:100550003AEF4EE85CE3DCD26093BF007093C000DA
:100560008093C1009093C2001092BC001092BB0017
:100570001092CF001092D0001092D1001092D200B1
:100580001092D3001092D4001092D5001092D60091
:100590001092D7001092D8001092D9001092DA0071
:1005A0001093870000938600CDCD80ED89DD8AE32E
:1005B0008DDD81ED85DD90DD90E09093840080936A
:1005C000830075DD8091830080FFBCCD80ED78DDF8
:1005D0008BE37CDD81ED74DD85DD1092A7008093D7
:1005E000A80080DD2091A7003091A800282B30932F
:1005F000A8002093A70076DD1092A9008093AA009E
:1006000071DD2091A9003091AA00282B3093AA0017
:100610002093A90067DD1092AB008093AC005CDDF5
:100620002091AB003091AC00282B3093AC0020938C
:10063000AB003DDD94E0E92EF12CEDC01093870076
:10064000009386004091A7005091A800052E000C51
:10065000660B770B8091CF009091D000A091D100D4
:10066000B091D2006A017B01C80ED91EEA1EFB1EA2
:10067000C701B601C092CF00D092D000E092D10065
:10068000F092D2008090A9009090AA00092C000C52
:10069000AA08BB08C090D300D090D400E090D50049
:1006A000F090D6008C0C9D1CAE1CBF1C8092D30019
:1006B0009092D400A092D500B092D600C090AB002A
:1006C000D090AC000D2C000CEE08FF082091D70054
:1006D0003091D8004091D9005091DA00C20ED31E5B
:1006E000E41EF51EC092D700D092D800E092D90047
:1006F000F092DA002091BB003091BC002F5F3F4F99
:100700003093BC002093BB001092A8001092A70069
:100710001092AA001092A9001092AC001092AB00A7
:100720002436310509F00ECDA3019201D2D32983DD
:100730003A834B835C8320936B0030936C0040932F
:100740006D0050936E00C501B401A3019201C1D3A5
:1007500049015A012093B7003093B8004093B90083
:100760005093BA00C701B601A3019201B2D32093FE
:10077000890030938A0040938B0050938C00109234
:10078000BC001092BB001092CF001092D0001092CB
:10079000D1001092D2001092D3001092D400109287
:1007A000D5001092D6001092D7001092D800109267
:1007B000D9001092DA00CA01B90145D26B017C015F
:1007C00069817A818B819C813ED2A70196014DD1AE
:1007D00023E33AEF4EE85CE39BD16093A300709370
:1007E000A4008093A5009093A600C501B4012BD26C
:1007F000A70196013AD123E33AEF4EE85CE388D1B2
:100800006093F6007093F7008093F8009093F900DE
:1008100085E0E82EF12CF0928700E092860092CCE1
:1008200080918800882309F44DC08090A3009090A7
:10083000A400A090A500B090A600C0900001D090A8
:100840000101E0900201F0900301A7019601C501AA
:10085000B401AAD218162CF4A7019601C501B4015F
:1008600004C0A5019401C701B6018BD0B9D19B0189
:1008700077FF04C022273327261B370BC90120919D
:10088000FC003091FD002817390788F4809174002E
:100890009091750001969093750080937400029773
:1008A00088F0C29AFF24F394F09285000BC08091E7
:1008B0008500882339F0C298109285001092750047
:1008C000109274008091EA00882309F44CC0809053
:1008D000F6009090F700A090F800B090F900C0905A
:1008E000BF00D090C000E090C100F090C200A7010E
:1008F0009601C501B40158D218162CF4A70196012F
:10090000C501B40104C0A5019401C701B60139D0E5
:1009100067D19B0177FF04C022273327261B370BA3
:10092000C9012091FC003091FD002817390780F49F
:100930008091C3009091C40001969093C40080936D
:10094000C300029780F0C29A21E020936F000BC091
:1009500080916F00882339F0C29810926F00109236
:10096000C4001092C30010938700009386003FEFED
:1009700089EF90E0315080409040E1F700C00000E6
:10098000E1CB5058BB27AA270ED0D4C1C5D130F037
:10099000CAD120F031F49F3F11F41EF495C10EF43A
:1009A000E095E7FB8BC1E92FD6D180F3BA17620738
:1009B00073078407950718F071F49EF5EEC10EF4E5
:1009C000E0950B2EBA2FA02D0B01B90190010C015F
:1009D000CA01A0011124FF27591B99F0593F50F477
:1009E000503E68F11A16F040A22F232F342F4427CF
:1009F000585FF3CF469537952795A795F0405395C7
:100A0000C9F77EF41F16BA0B620B730B840BBAF096
:100A10009150A1F0FF0FBB1F661F771F881FC2F701
:100A20000EC0BA0F621F731F841F48F48795779515
:100A30006795B795F7959E3F08F0B3CF9395880FCC
:100A400008F09927EE0F97958795089565D158F08E
:100A500080E891E009F49EEF66D128F040E851E08B
:100A600059F45EEF09C030C198C1E92FE07873D125
:100A700068F3092E052AC1F32617370748075907D7
:100A800038F00E2E07F8E02569F0E025E0640AC092
:100A9000EF6307F8009407FADB01B9019D01DC015F
:100AA000CA01AD01EF9343D045D10AD05F915523E0
:100AB00031F02BED3FE049E450FD49EC63CF089560
:100AC000DF93DD27B92FBF7740E85FE316161706DF
:100AD00048075B0710F4D92F6BD19F938F937F93B7
:100AE0006F93CED1E6E2F0E0F2D024D12F913F9186
:100AF0004F915F916ED1DD2349F09058A2EA2AED23
:100B00003FE049EC5FE3D0785D274DDFDF9112C114
:100B10000CD010C108D140F0FFD030F021F45F3F7D
:100B200019F0CCC051113AC1CFC015D198F3992317
:100B3000C9F35523B1F3951B550BBB27AA276217A1
:100B40007307840738F09F5F5F4F220F331F441FE6
:100B5000AA1FA9F333D00E2E3AF0E0E830D091501E
:100B60005040E695001CCAF729D0FE2F27D0660F0B
:100B7000771F881FBB1F261737074807AB07B0E84A
:100B800009F0BB0B802DBF01FF2793585F4F2AF060
:100B90009E3F510568F092C001C15F3FECF3983E63
:100BA000DCF3869577956795B795F7959F5FC9F7BD
:100BB000880F911D9695879597F90895E1E0660F46
:100BC000771F881FBB1F621773078407BA0720F0BF
:100BD000621B730B840BBA0BEE1F88F7E095089528
:100BE00004D06894B111DAC00895BDD088F09F5741
:100BF00090F0B92F9927B751A0F0D1F0660F771F69
:100C0000881F991F1AF0BA95C9F712C0B13081F048
:100C1000C4D0B1E00895C1C0672F782F8827B85F8E
:100C200039F0B93FCCF3869577956795B395D9F7A9
:100C30003EF490958095709561957F4F8F4F9F4FB3
:100C40000895E89409C097FB3EF4909580957095BF
:100C500061957F4F8F4F9F4F9923A9F0F92F96E908
:100C6000BB279395F695879577956795B795F1117D
:100C7000F8CFFAF4BB0F11F460FF1BC06F5F7F4F1A
:100C80008F4F9F4F16C0882311F096E911C077232C
:100C900021F09EE8872F762F05C0662371F096E835
:100CA000862F70E060E02AF09A95660F771F881F04
:100CB000DAF7880F9695879597F9089597F99F67C2
:100CC00080E870E060E008959FEF80EC0895DF9386
:100CD000CF931F930F93FF92EF92DF927B018C01D2
:100CE000689405C0DA2EEF0174D0FE01E894A59156
:100CF0002591359145915591AEF3EF0154DEFE01FA
:100D00009701A801DA9479F7DF90EF90FF900F91A7
:100D10001F91CF91DF91089500240A9416161706AB
:100D200018060906089500240A94121613061406DC
:100D300005060895092E0394000C11F4882352F03F
:100D4000BB0F40F4BF2B11F460FF04C06F5F7F4FF7
:100D50008F4F9F4F089557FD9058440F551F59F0DE
:100D60005F3F71F04795880F97FB991F61F09F3F98
:100D700079F087950895121613061406551FF2CFC1
:100D80004695F1DF08C0161617061806991FF1CF11
:100D900086957105610508940895E894BB27662738
:100DA0007727CB0197F908956ED008F48FEF089557
:100DB0009B01AC0160E070E080E89FE3A9CEACDF6E
:100DC00028F0B1DF18F0952309F078CF7DCF1124FA
:100DD000E5CFC1DFA0F3959FD1F3950F50E0551FEC
:100DE000629FF001729FBB27F00DB11D639FAA2780
:100DF000F00DB11DAA1F649F6627B00DA11D661FCF
:100E0000829F2227B00DA11D621F739FB00DA11DEF
:100E1000621F839FA00D611D221F749F3327A00DA9
:100E2000611D231F849F600D211D822F762F6A2F45
:100E300011249F5750408AF0E1F088234AF0EE0FCA
:100E4000FF1FBB1F661F771F881F91505040A9F7D7
:100E50009E3F510570F032CFA1CF5F3FECF3983E3B
:100E6000DCF3869577956795B795F795E7959F5F3E
:100E7000C1F7FE2B880F911D9695879597F90895D8
:100E80009B01AC0124C0990F0008550FAA0BE0E8A4
:100E9000FEEF16161706E807F907C0F0121613063C
:100EA000E407F50798F0621B730B840B950B39F47C
:100EB0000A2661F0232B242B252B21F408950A26E2
:100EC00009F4A140A6958FEF811D811D089581DF52
:100ED00031CF052E97FB16F400940FD057FD05D0A7
:100EE00014D007FC02D046F408C0509540953095C8
:100EF00021953F4F4F4F5F4F089590958095709586
:100F000061957F4F8F4F9F4F0895A1E21A2EAA1B24
:100F1000BB1BFD010DC0AA1FBB1FEE1FFF1FA217A9
:100F2000B307E407F50720F0A21BB30BE40BF50BA6
:100F3000661F771F881F991F1A9469F7609570952F
:100F4000809590959B01AC01BD01CF010895F89467
:020F5000FFCFD1
:00000001FF
