S01A0000416363656C65726174696F6E53656E736F722E73726563C6
S11300000C9434000C9446000C9446000C94460066
S11300100C9446000C9446000C9446000C94460044
S11300200C9446000C9446000C9446000C94460034
S11300300C9446000C9446000C9446000C94460024
S11300400C9446000C9446000C9446000C94460014
S11300500C9446000C9446000C9446000C94460004
S11300600C9446000C94460011241FBECFEFD8E038
S1130070DEBFCDBF21E0A0E0B1E001C01D92A931F7
S1130080B207E1F70E949E000C94D9010C94000081
S11300908091BC0087FFFCCF0895E9EBF0E08081FC
S11300A080838AE48093B80008950E944D0084E41C
S11300B08093BC00089584EA8093BC000E944800A9
S11300C08091B900089584E98093BC0008958093D9
S11300D0BB0084E88093BC000E9448008091B90072
S11300E00895CF93C82F0E945B008C2FCF910C945E
S11300F067008093BB0084E88093BC000E944800A2
S11301008091B900089584E88093BC000E9448005F
S11301108091B9008091BB00089584EC8093BC0069
S11301200E9448008091B9008091BB00089590918D
S1130130C00095FFFCCF8093C600089510920A0179
S113014014E0C2E007E688E1F82E96E0E92EDD240B
S1130150D394D0E280910A018130B9F104F5811180
S1130160FBCF259A809164008D7780936400109270
S1130170C5000093C400F092C100E092C2000E9446
S11301805500D0920A012FEF31EE44E02150304067
S11301904040E1F700C0000084E090E007C08230F6
S11301A009F49FC0843009F4CEC0D6CF2FEF34E3D6
S11301B04CE0215030404040E1F700C0000025B140
S11301C02D2725B9019791F7C5CF80ED0E947100C5
S11301D088E30E94790081E00E9479000E94630014
S11301E080ED0E94710089E10E94790087E00E94FD
S11301F0790080E00E94790080E00E94790080E02C
S11302000E9479000E94630080ED0E9471008BE6D9
S11302100E94790089E00E9479000E94630080EDC9
S11302200E94710085E70E94790081ED0E947100AF
S11302300E948300809307010E946300809107015C
S11302400E94970080910701082E000C990B8E776D
S113025088369105D9F584E195B19D2795B99FEF2D
S113026021EE34E0915020403040E1F700C000001E
S1130270815091F780ED0E9471008AE30E94790019
S113028081ED0E9471000E94830080FF8FC080ED89
S11302900E94710083E40E94790081ED0E94710044
S11302A00E948D0010920001809301010E9483003E
S11302B0082E000C990B2091000130910101822B32
S11302C0932B909301018093000170C02D9A4FEFFE
S11302D087EA91E6415080409040E1F700C0000079
S11302E039CF80ED0E9471008AE30E94790081ED8C
S11302F00E9471000E9483008093070180FF2ACF2F
S113030080ED0E94710083E40E94790081ED0E94D7
S113031071000E948D0010920D0180930E010E94C5
S11303208300082E000C990B20910D0130910E01D1
S1130330822B932B90930E0180930D010E946300F6
S113034010930A0107CF209100013091010180919F
S11303500D0190910E01821793073CF4281B390B71
S1130360309309012093080106C0821B930B9093DC
S11303700901809308018091080190910901893E47
S1130380934014F02D9A01C02D98809109010E9488
S11303909700809108010E9497003FEF44E38CE0AE
S11303A0315040408040E1F700C00000C0930A0192
S10903B0D1CEF894FFCF4A
S9030000FC
