:100000000C9434000C9451000C9451000C94510049
:100010000C9451000C9451000C9451000C9451001C
:100020000C9451000C9451000C9451000C9451000C
:100030000C9451000C9451000C9451000C945100FC
:100040000C9451000C9451000C9451000C945100EC
:100050000C9451000C9451000C9451000C945100DC
:100060000C9451000C94510011241FBECFEFD8E026
:10007000DEBFCDBF11E0A0E0B1E0E8E5F3E002C0F3
:1000800005900D92A630B107D9F721E0A6E0B1E0C6
:1000900001C01D92AC30B207E1F70E94A9000C9498
:1000A000AA010C9400008091BC0087FFFCCF08954A
:1000B000E9EBF0E08081808388E48093B8000895C4
:1000C0000E94580084E48093BC00089584EA8093E1
:1000D000BC000E9453008091B900089584E9809388
:1000E000BC0008958093BB0084E88093BC000E940C
:1000F00053008091B9000895CF93C82F0E946600E5
:100100008C2FCF910C9472008093BB0084E8809375
:10011000BC000E9453008091B900089584E8809348
:10012000BC000E9453008091B9008091BB000895EB
:1001300084EC8093BC000E9453008091B9008091B0
:10014000BB0008959091C00095FFFCCF8093C6003E
:10015000089510920801259A87B1806387B980912C
:1001600064008D77809364001092C50087E68093C9
:10017000C40088E18093C10086E08093C20012E051
:1001800000E2FF24F39484E0E82EC3E0D1E0809104
:1001900008018130E9F1F0F0823009F4A9C084301F
:1001A000C1F7809109010E94A20080910A010E947A
:1001B000A20080910B010E94A2008C2F0E94A2003D
:1001C0002FEF39E648E1215030404040E1F700C0D0
:1001D0000000BDC00E946000F09208012FEF31EED8
:1001E00044E0215030404040E1F700C0000084E08E
:1001F00090E02FEF34E34CE0215030404040E1F7F5
:1002000000C0000025B1202725B9019791F7BFCF85
:1002100080E30E947C0080EA0E9484008FE50E94B7
:10022000840080E00E94840080E00E94840080E0DE
:100230000E94840080E00E94840080E00E9484008C
:100240000E946E0080E30E947C008FE00E94840088
:100250000E94660081E30E9484000E948E008093C9
:1002600006010E946E0080910601833381F484E1CF
:1002700095B1902795B99FEF21EE34E09150204041
:100280003040E1F700C00000815091F70AC02D9A7C
:100290004FEF87EA91E6415080409040E1F700C07F
:1002A000000080E30E947C0087E00E94840081E3DC
:1002B0000E947C000E948E008093060183FF47C04D
:1002C00080E30E947C0088EA0E94840081E30E940F
:1002D0007C000E949800809300010E949800809307
:1002E00001010E948E00809302010E946E002FC0C7
:1002F00080E30E947C0087E00E94840081E30E94EA
:100300007C000E948E008093060183FF40CF80E333
:100310000E947C0089EA0E94840081E30E947C00A4
:100320000E949800809309010E9498008093070121
:100330000E94980080930A010E9498008093070110
:100340000E948E0080930B01E092080120CF109351
:0803500008011DCFF894FFCF56
:060358007F7F7F0A000018
:00000001FF
