:100000000C9434000C9446000C9446000C9446006A
:100010000C9446000C9446000C9446000C94460048
:100020000C9446000C9446000C9446000C94460038
:100030000C9446000C9446000C9446000C94460028
:100040000C9446000C9446000C9446000C94460018
:100050000C9446000C9446000C9446000C94460008
:100060000C9446000C94460011241FBECFEFD8E03C
:10007000DEBFCDBF21E0A0E0B1E001C01D92AA30FB
:10008000B207E1F70E949E000C9495010C940000C9
:100090008091BC0087FFFCCF0895E9EBF0E0808100
:1000A000808388E48093B80008950E944D0084E422
:1000B0008093BC00089584EA8093BC000E944800AD
:1000C0008091B900089584E98093BC0008958093DD
:1000D000BB0084E88093BC000E9448008091B90076
:1000E0000895CF93C82F0E945B008C2FCF910C9462
:1000F00067008093BB0084E88093BC000E944800A6
:100100008091B900089584E88093BC000E94480063
:100110008091B9008091BB00089584EC8093BC006D
:100120000E9448008091B9008091BB000895909191
:10013000C00095FFFCCF8093C60008951092060181
:10014000259A809164008D77809364001092C50099
:1001500087E68093C40088E18093C10086E08093A5
:10016000C200C2E0D0E211E004E0809106018130DB
:10017000D1F1D8F0823009F4A6C08430C1F7809163
:1001800007010E949700809108010E9497008091CA
:1001900009010E9497002FEF33ED40E321503040DA
:1001A0004040E1F700C00000BDC00E945500109320
:1001B00006012FEF31EE44E0215030404040E1F79E
:1001C00000C0000084E090E02FEF34E34CE02150C9
:1001D00030404040E1F700C0000025B12D2725B98F
:1001E000019791F7C2CF80E30E94710080EA0E94DC
:1001F00079008FE50E94790080E00E94790080E01C
:100200000E94790080E00E94790080E00E947900DD
:1002100080E00E9479000E94630080E30E947100E8
:100220008FE00E9479000E945B0081E30E947900C8
:100230000E948300809304010E9463008091040166
:10024000833381F484E195B19D2795B99FEF21EE29
:1002500034E0915020403040E1F700C00000815070
:1002600091F70AC02D9A4FEF87EA91E641508040FE
:100270009040E1F700C0000080E30E94710087E039
:100280000E94790081E30E9471000E9483008093A4
:10029000040183FF47C080E30E94710088EA0E9446
:1002A000790081E30E9471000E948D00809300011B
:1002B0000E948D00809301010E94830080930201BF
:1002C0000E9463002FC080E30E94710087E00E94BB
:1002D000790081E30E9471000E94830080930401F1
:1002E00083FF43CF80E30E94710089EA0E94790076
:1002F00081E30E9471000E948D00809307010E949B
:100300008D00809305010E948D00809308010E945A
:100310008D00809305010E94830080930901009362
:0E032000060123CFC093060120CFF894FFCF33
:00000001FF
