:1000000029C043C042C041C040C03FC03EC03DC007
:100010003CC03BC03AC039C038C037C036C035C01C
:1000200034C033C032C0084AD73B3BCE016E84BCDB
:10003000BFFDC12F3D6C74319ABD56833DDA3D0042
:10004000C77F11BED9E4BB4C3E916BAAAABE00008B
:1000500000803F0011241FBECFE5D4E0DEBFCDBF3E
:1000600010E0A0E6B0E0E0EDFDE002C005900D92EA
:10007000A036B107D9F720E0A0E6B0E001C01D929C
:10008000A93FB207E1F734D0A1C6BACF06B607FE42
:10009000FDCF089511B88CE080B90895FBDF84E4AA
:1000A00086BF089584EA86BFF1DF81B1089584E9AF
:1000B00086BF089583B984E886BFE8DF81B10895DB
:1000C000CF93C82FEFDF8C2FCF91F4CF83B984E883
:1000D00086BFDCDF81B1089584E886BFD7DF81B1B8
:1000E00083B1089584EC86BFD1DF81B183B10895D7
:1000F000CF93DF9300D000D0CDB7DEB7109284004D
:1001000010928300109291001092800003E010E0A2
:1001100034E6432E512C612C712C42E0242E312CDC
:1001200080918300909184008230910509F4AAC0E7
:1001300034F4009779F08130910569F1F5CF84307E
:10014000910509F428C20CF4DAC18530910509F44F
:1001500014C3EACF87B3866087BB84B3807F84BB38
:1001600085B38F6085BBC19A99DF83B3837090E0BC
:1001700090937F0080937E0083B38C7090E0909387
:10018000720080937100CC24C394D12CD09284004F
:10019000C0928300C5CF80ED93DF89E197DF84E0D3
:1001A00095DF81E093DF8091710090DF80917E0088
:1001B0008DDF7DDF80ED84DF88E388DF81E086DF0F
:1001C00076DF80ED7DDF8BE681DF89E07FDF6FDF2B
:1001D00080ED76DF85E77ADF81ED72DF7DDF90E00D
:1001E000909382008093810062DF809181009091E2
:1001F00082008E771092700010926F008836910501
:1002000019F580916F00909170004497C4F488B301
:1002100092E0D92E8D2588BB2FEF31EE84E021505E
:1002200030408040E1F700C0000080916F00909165
:10023000700001969093700080936F00E2CF30922F
:100240008400209283006CCF80916F0090917000A9
:100250000A970CF065CF88B392E0892788BBAFEF8F
:10026000B9E628E1A150B0402040E1F700C000000D
:1002700080916F0090917000019690937000809330
:100280006F00E2CF80ED1CDF8AE320DF81ED18DF15
:1002900023DF90E0909382008093810008DF8091BB
:1002A000810080FF1EC180ED0BDF8BE30FDF81ED4E
:1002B00007DF18DF1092A3008093A40013DF2091C2
:1002C000A3003091A400282B3093A4002093A30016
:1002D00009DF1092A5008093A60004DF2091A500FD
:1002E0003091A600282B3093A6002093A500FADEBB
:1002F0001092A7008093A800EFDE2091A700309114
:10030000A800282B3093A8002093A700D0DE4091AE
:10031000A3005091A400052E000C660B770B809172
:10032000C9009091CA00A091CB00B091CC006A01A5
:100330007B01C80ED91EEA1EFB1EC701B601C09282
:10034000C900D092CA00E092CB00F092CC0080901D
:10035000A5009090A600092C000CAA08BB08C0902C
:10036000CD00D090CE00E090CF00F090D0008C0C6B
:100370009D1CAE1CBF1C8092CD009092CE00A0921E
:10038000CF00B092D000C090A700D090A8000D2C54
:10039000000CEE08FF082091D1003091D20040916E
:1003A000D3005091D400C20ED31EE41EF51EC0929D
:1003B000D100D092D200E092D300F092D4002091EC
:1003C000B7003091B8002F5F3F4F3093B8002093B3
:1003D000B7001092A4001092A3001092A6001092F1
:1003E000A5001092A8001092A7002436310509F04C
:1003F00078C0A3019201ACD429833A834B835C83F8
:1004000020938D0030938E0040938F005093900086
:10041000C501B401A30192019BD449015A01209363
:10042000890030938A0040938B0050938C00C70161
:10043000B601A30192018CD42093E0003093E10037
:100440004093E2005093E300CA01B9013BD36B0132
:100450007C0169817A818B819C8134D3A7019601CB
:1004600043D223E33AEF4EE85CE391D26093F50088
:100470007093F6008093F7009093F800C501B401E3
:1004800021D3A701960130D223E33AEF4EE85CE393
:100490007ED26093BB007093BC008093BD009093AC
:1004A000BE001092B8001092B7001092C9001092CE
:1004B000CA001092CB001092CC001092CD00109286
:1004C000CE001092CF001092D0001092D100109266
:1004D000D2001092D3001092D400109384000093A5
:1004E0008300C1982FEF33E284EF90E02150304039
:1004F00080409040D9F700C00000C19A11CE80ED35
:10050000DFDD8AE3E3DD81EDDBDDE6DD90E0909386
:10051000820080938100CBDD8091810080FF00CE3E
:1005200080EDCEDD8BE3D2DD81EDCADDDBDD109227
:10053000A3008093A400D6DD2091A3003091A400F5
:10054000282B3093A4002093A300CCDD1092A500AB
:100550008093A600C7DD2091A5003091A600282B2E
:100560003093A6002093A500BDDD1092A7008093D4
:10057000A800B2DD2091A7003091A800282B30936D
:10058000A8002093A70093DDA4E0B0E0B09384001E
:10059000A0938300C5CD1093840000938300409105
:1005A000A3005091A400052E000C660B770B8091E0
:1005B000C9009091CA00A091CB00B091CC006A0113
:1005C0007B01C80ED91EEA1EFB1EC701B601C092F0
:1005D000C900D092CA00E092CB00F092CC0080908B
:1005E000A5009090A600092C000CAA08BB08C0909A
:1005F000CD00D090CE00E090CF00F090D0008C0CD9
:100600009D1CAE1CBF1C8092CD009092CE00A0928B
:10061000CF00B092D000C090A700D090A8000D2CC1
:10062000000CEE08FF082091D1003091D2004091DB
:10063000D3005091D400C20ED31EE41EF51EC0920A
:10064000D100D092D200E092D300F092D400209159
:10065000B7003091B8002F5F3F4F3093B800209320
:10066000B7001092A4001092A3001092A60010925E
:10067000A5001092A8001092A7002436310509F0B9
:100680004FCDA301920164D329833A834B835C83CA
:1006900020936B0030936C0040936D0050936E007C
:1006A000C501B401A301920153D349015A0120931A
:1006B000B3003093B4004093B5005093B600C70127
:1006C000B601A301920144D32093850030938600A4
:1006D00040938700509388001092B8001092B700A2
:1006E0001092C9001092CA001092CB001092CC0058
:1006F0001092CD001092CE001092CF001092D00038
:100700001092D1001092D2001092D3001092D40017
:10071000CA01B901D7D16B017C0169817A818B81D2
:100720009C81D0D1A7019601DFD023E33AEF4EE8B8
:100730005CE32DD160939F007093A0008093A10093
:100740009093A200C501B401BDD1A7019601CCD000
:1007500023E33AEF4EE85CE31AD16093EF00709325
:10076000F0008093F1009093F20085E0E82EF12CE8
:10077000F0928400E0928300D3CC80909F00909010
:10078000A000A090A100B090A200C090F500D09071
:10079000F600E090F700F090F800A7019601C5017F
:1007A000B40141D218162CF4A7019601C501B40179
:1007B00004C0A5019401C701B60122D050D19B010C
:1007C00077FF04C022273327261B370B2B30310538
:1007D00014F0C29A07C080918000882319F0C29853
:1007E0001092800010938400009383002FEF39E66D
:1007F00088E1215030408040E1F700C0000090CCFB
:100800005058BB27AA270ED0D4C1C5D130F0CAD1C9
:1008100020F031F49F3F11F41EF495C10EF4E095E1
:10082000E7FB8BC1E92FD6D180F3BA1762077307B4
:100830008407950718F071F49EF5EEC10EF4E0956B
:100840000B2EBA2FA02D0B01B90190010C01CA018A
:10085000A0011124FF27591B99F0593F50F4503E35
:1008600068F11A16F040A22F232F342F4427585F27
:10087000F3CF469537952795A795F0405395C9F73F
:100880007EF41F16BA0B620B730B840BBAF09150F7
:10089000A1F0FF0FBB1F661F771F881FC2F70EC096
:1008A000BA0F621F731F841F48F487957795679569
:1008B000B795F7959E3F08F0B3CF9395880F08F052
:1008C0009927EE0F97958795089565D158F080E8A0
:1008D00091E009F49EEF66D128F040E851E059F428
:1008E0005EEF09C030C198C1E92FE07873D168F399
:1008F000092E052AC1F3261737074807590738F08C
:100900000E2E07F8E02569F0E025E0640AC0EF63E9
:1009100007F8009407FADB01B9019D01DC01CA0167
:10092000AD01EF9343D045D10AD05F91552331F00B
:100930002BED3FE049E450FD49EC63CF0895DF9390
:10094000DD27B92FBF7740E85FE316161706480783
:100950005B0710F4D92F6BD19F938F937F936F9385
:10096000CED1E6E2F0E0F2D024D12F913F914F9129
:100970005F916ED1DD2349F09058A2EA2AED3FE065
:1009800049EC5FE3D0785D274DDFDF9112C10CD0D9
:1009900010C108D140F0FFD030F021F45F3F19F0D2
:1009A000CCC051113AC1CFC015D198F39923C9F3E6
:1009B0005523B1F3951B550BBB27AA276217730765
:1009C000840738F09F5F5F4F220F331F441FAA1F19
:1009D000A9F333D00E2E3AF0E0E830D091505040D9
:1009E000E695001CCAF729D0FE2F27D0660F771F87
:1009F000881FBB1F261737074807AB07B0E809F069
:100A0000BB0B802DBF01FF2793585F4F2AF09E3FFD
:100A1000510568F092C001C15F3FECF3983EDCF3F2
:100A2000869577956795B795F7959F5FC9F7880F76
:100A3000911D9695879597F90895E1E0660F771FC8
:100A4000881FBB1F621773078407BA0720F0621B59
:100A5000730B840BBA0BEE1F88F7E095089504D052
:100A60006894B111DAC00895BDD088F09F5790F016
:100A7000B92F9927B751A0F0D1F0660F771F881FC3
:100A8000991F1AF0BA95C9F712C0B13081F0C4D0DD
:100A9000B1E00895C1C0672F782F8827B85F39F07B
:100AA000B93FCCF3869577956795B395D9F73EF422
:100AB00090958095709561957F4F8F4F9F4F0895CA
:100AC000E89409C097FB3EF49095809570956195E8
:100AD0007F4F8F4F9F4F9923A9F0F92F96E9BB279E
:100AE0009395F695879577956795B795F111F8CF1A
:100AF000FAF4BB0F11F460FF1BC06F5F7F4F8F4F85
:100B00009F4F16C0882311F096E911C0772321F07A
:100B10009EE8872F762F05C0662371F096E8862F12
:100B200070E060E02AF09A95660F771F881FDAF769
:100B3000880F9695879597F9089597F99F6780E8AC
:100B400070E060E008959FEF80EC0895DF93CF930D
:100B50001F930F93FF92EF92DF927B018C016894B9
:100B600005C0DA2EEF0174D0FE01E894A59125911D
:100B7000359145915591AEF3EF0154DEFE01970199
:100B8000A801DA9479F7DF90EF90FF900F911F9111
:100B9000CF91DF91089500240A94161617061806BF
:100BA0000906089500240A94121613061406050671
:100BB0000895092E0394000C11F4882352F0BB0F02
:100BC00040F4BF2B11F460FF04C06F5F7F4F8F4F65
:100BD0009F4F089557FD9058440F551F59F05F3FA0
:100BE00071F04795880F97FB991F61F09F3F79F04F
:100BF00087950895121613061406551FF2CF4695D1
:100C0000F1DF08C0161617061806991FF1CF869552
:100C10007105610508940895E894BB276627772736
:100C2000CB0197F908956ED008F48FEF08959B01DA
:100C3000AC0160E070E080E89FE3A9CEACDF28F073
:100C4000B1DF18F0952309F078CF7DCF1124E5CFDF
:100C5000C1DFA0F3959FD1F3950F50E0551F629F20
:100C6000F001729FBB27F00DB11D639FAA27F00D05
:100C7000B11DAA1F649F6627B00DA11D661F829F2C
:100C80002227B00DA11D621F739FB00DA11D621F11
:100C9000839FA00D611D221F749F3327A00D611D2E
:100CA000231F849F600D211D822F762F6A2F112410
:100CB0009F5750408AF0E1F088234AF0EE0FFF1F63
:100CC000BB1F661F771F881F91505040A9F79E3F9A
:100CD000510570F032CFA1CF5F3FECF3983EDCF3CB
:100CE000869577956795B795F795E7959F5FC1F7D7
:100CF000FE2B880F911D9695879597F908959B0176
:100D0000AC0124C0990F0008550FAA0BE0E8FEEFD4
:100D100016161706E807F907C0F012161306E407BF
:100D2000F50798F0621B730B840B950B39F40A26B8
:100D300061F0232B242B252B21F408950A2609F496
:100D4000A140A6958FEF811D811D089581DF31CFD0
:100D5000052E97FB16F400940FD057FD05D014D044
:100D600007FC02D046F408C0509540953095219577
:100D70003F4F4F4F5F4F08959095809570956195C7
:100D80007F4F8F4F9F4F0895A1E21A2EAA1BBB1BC6
:100D9000FD010DC0AA1FBB1FEE1FFF1FA217B30747
:100DA000E407F50720F0A21BB30BE40BF50B661F5D
:100DB000771F881F991F1A9469F760957095809521
:100DC00090959B01AC01BD01CF010895F894FFCF30
:00000001FF
