:100000000C9434000C9446000C9446000C9446006A
:100010000C9446000C9446000C9446000C94460048
:100020000C9446000C9446000C9446000C94460038
:100030000C9446000C9446000C9446000C94460028
:100040000C9446000C9446000C9446000C94460018
:100050000C9446000C9446000C9446000C94460008
:100060000C9446000C94460011241FBECFEFD8E03C
:10007000DEBFCDBF21E0A0E0B1E001C01D92AD30F8
:10008000B207E1F70E949E000C94BF010C9400009F
:100090008091BC0087FFFCCF0895E9EBF0E0808100
:1000A000808388E48093B80008950E944D0084E422
:1000B0008093BC00089584EA8093BC000E944800AD
:1000C0008091B900089584E98093BC0008958093DD
:1000D000BB0084E88093BC000E9448008091B90076
:1000E0000895CF93C82F0E945B008C2FCF910C9462
:1000F00067008093BB0084E88093BC000E944800A6
:100100008091B900089584E88093BC000E94480063
:100110008091B9008091BB00089584EC8093BC006D
:100120000E9448008091B9008091BB000895909191
:10013000C00095FFFCCF8093C60008951092060181
:1001400084E0F82E05EA1AE5C2E097E6E92E28E1F8
:10015000D22E36E0C32EBB24B394D0E280910601A8
:10016000813009F461C004F58111FACF259A80919C
:1001700064008D77809364001092C500E092C40003
:10018000D092C100C092C2000E945500B0920601F8
:100190002FEF31EE44E0215030404040E1F700C005
:1001A000000084E090E031C0823009F4B6C08430B1
:1001B000B9F60093050185EA0E9497008091080135
:1001C0000E949700109305018AE50E949700809194
:1001D00009010E949700809105010E94970080917B
:1001E0000A010E949700809105010E94970080916A
:1001F00005010E9497002FEF30E742E02150304088
:100200004040E1F700C00000B7C02FEF34E34CE0FE
:10021000215030404040E1F700C0000025B12D27BB
:1002200025B9019791F79ACF80E30E94710080EA87
:100230000E9479008FE50E94790080E00E94790099
:1002400080E00E94790080E80E94790080E00E94AE
:10025000790080E00E9479000E94630080E30E94A0
:1002600071008FE00E9479000E945B0081E30E9490
:1002700079000E948300809304010E9463008091B2
:100280000401833309F03EC084E195B19D2795B9FF
:100290009FEF21EE34E0915020403040E1F700C064
:1002A0000000815091F780E30E94710087E00E9476
:1002B000790081E30E9471000E9483008093040111
:1002C00083FF5AC080E30E94710088EA0E9479008F
:1002D00081E30E9471000E948D00809300010E94C2
:1002E0008D00809305010E948D00809301010E9482
:1002F0008D00809305010E948300809302010E947B
:1003000063003AC02D9A4FEF87EA91E64150804052
:100310009040E1F700C0000021CF80E30E9471000F
:1003200087E00E94790081E30E9471000E948300AF
:100330008093040183FF12CF80E30E94710089EA59
:100340000E94790081E30E9471000E948D008093D9
:1003500008010E948D00809305010E948D0080930A
:1003600009010E948D00809305010E948300809303
:100370000A01F0920601F2CEC0930601EFCEF89486
:02038000FFCFAD
:00000001FF
