:1000000029C043C042C041C040C03FC03EC03DC007
:100010003CC03BC03AC039C038C037C036C035C01C
:1000200034C033C032C0084AD73B3BCE016E84BCDB
:10003000BFFDC12F3D6C74319ABD56833DDA3D0042
:10004000C77F11BED9E4BB4C3E916BAAAABE00008B
:1000500000803F0011241FBECFE5D4E0DEBFCDBF3E
:1000600010E0A0E6B0E0ECE0FEE002C005900D92EA
:10007000A036B107D9F720E0A0E6B0E001C01D929C
:10008000A83FB207E1F734D0BFC6BACF06B607FE25
:10009000FDCF089511B88CE080B90895FBDF84E4AA
:1000A00086BF089584EA86BFF1DF81B1089584E9AF
:1000B00086BF089583B984E886BFE8DF81B10895DB
:1000C000CF93C82FEFDF8C2FCF91F4CF83B984E883
:1000D00086BFDCDF81B1089584E886BFD7DF81B1B8
:1000E00083B1089584EC86BFD1DF81B183B10895D7
:1000F000CF93DF9300D000D0CDB7DEB7109283004E
:10010000109282001092900003E010E044E6442E2A
:10011000512C612C712C52E0252E312C80918200C3
:10012000909183008230910509F4ADC034F40097BA
:1001300079F08130910559F1F5CF8430910509F4BA
:100140001BC20CF4D0C18530910509F40DC3EACF70
:10015000BA9A84B3807F84BB85B38F6085BBC09A15
:100160009DDF83B3837090E090937F0080937E0047
:1001700083B38C7090E09093720080937100CC24D4
:10018000C394D12CD0928300C0928200C7CF80ED5F
:1001900097DF89E19BDF84E099DF81E097DF809141
:1001A000710094DF80917E0091DF81DF80ED88DF38
:1001B00088E38CDF81E08ADF7ADF80ED81DF8BE608
:1001C00085DF89E083DF73DF80ED7ADF85E77EDF1F
:1001D00081ED76DF81DF90E0909381008093800055
:1001E00066DF80918000909181008E77883691053E
:1001F00039F51092700010926F0080916F0090910D
:1002000070004497C4F488B320E2D22E8D2588BBB9
:100210002FEF81EE94E0215080409040E1F700C044
:10022000000080916F009091700001969093700093
:1002300080936F00E2CF30928300209282006ECFD5
:10024000C59A1092700010926F0080916F0090918B
:1002500070000A970CF062CF88B3A0E28A2788BBAF
:10026000BFEF29E688E1B15020408040E1F700C0AF
:10027000000080916F009091700001969093700043
:1002800080936F00E2CF80ED1BDF8AE31FDF81EDFB
:1002900017DF22DF90E0909381008093800007DFDA
:1002A0008091800080FF3ACF80ED0ADF8BE30EDF84
:1002B00081ED06DF17DF1092A2008093A30012DF0A
:1002C0002091A2003091A300282B3093A30020930B
:1002D000A20008DF1092A4008093A50003DF209104
:1002E000A4003091A500282B3093A5002093A400F2
:1002F000F9DE1092A6008093A700EEDE2091A60002
:100300003091A700282B3093A7002093A600CFDEC2
:100310004091A2005091A300052E000C660B770BB4
:100320008091C8009091C900A091CA00B091CB0003
:100330006A017B01C80ED91EEA1EFB1EC701B60169
:10034000C092C800D092C900E092CA00F092CB00DF
:100350008090A4009090A500092C000CAA08BB086E
:10036000C090CC00D090CD00E090CE00F090CF00B7
:100370008C0C9D1CAE1CBF1C8092CC009092CD00BA
:10038000A092CE00B092CF00C090A600D090A7005F
:100390000D2C000CEE08FF082091D0003091D10008
:1003A0004091D2005091D300C20ED31EE41EF51E20
:1003B000C092D000D092D100E092D200F092D3004F
:1003C0002091B6003091B7002F5F3F4F3093B700B8
:1003D0002093B6001092A3001092A2001092A500E4
:1003E0001092A4001092A7001092A60024363105A6
:1003F00009F094CEA3019201C9D429833A834B8397
:100400005C8320938C0030938D0040938E0050933A
:100410008F00C501B401A3019201B8D449015A016A
:10042000209388003093890040938A0050938B007A
:10043000C701B601A3019201A9D42093DF00309334
:10044000E0004093E1005093E200CA01B90158D3A3
:100450006B017C0169817A818B819C8151D3A701D9
:10046000960160D223E33AEF4EE85CE3AED26093AC
:10047000F4007093F5008093F6009093F700C501A7
:10048000B4013ED3A70196014DD223E33AEF4EE8E3
:100490005CE39BD26093BA007093BB008093BC0076
:1004A0009093BD001092B7001092B6001092C80051
:1004B0001092C9001092CA001092CB001092CC008A
:1004C0001092CD001092CE001092CF001092D0006A
:1004D0001092D1001092D2001092D300109383009A
:1004E000009382001BCE80EDEBDD8AE3EFDD81ED32
:1004F000E7DDF2DD90E09093810080938000D7DD0E
:100500008091800080FF0ACE80EDDADD8BE3DEDDB6
:1005100081EDD6DDE7DD1092A2008093A300E2DD3D
:100520002091A2003091A300282B3093A3002093A8
:10053000A200D8DD1092A4008093A500D3DD209105
:10054000A4003091A500282B3093A5002093A4008F
:10055000C9DD1092A6008093A700BEDD2091A60001
:100560003091A700282B3093A7002093A6009FDD91
:1005700094E0E92EF12CF3C01093830000938200E5
:100580004091A2005091A300052E000C660B770B42
:100590008091C8009091C900A091CA00B091CB0091
:1005A0006A017B01C80ED91EEA1EFB1EC701B601F7
:1005B000C092C800D092C900E092CA00F092CB006D
:1005C0008090A4009090A500092C000CAA08BB08FC
:1005D000C090CC00D090CD00E090CE00F090CF0045
:1005E0008C0C9D1CAE1CBF1C8092CC009092CD0048
:1005F000A092CE00B092CF00C090A600D090A700ED
:100600000D2C000CEE08FF082091D0003091D10095
:100610004091D2005091D300C20ED31EE41EF51EAD
:10062000C092D000D092D100E092D200F092D300DC
:100630002091B6003091B7002F5F3F4F3093B70045
:100640002093B6001092A3001092A2001092A50071
:100650001092A4001092A7001092A6002436310533
:1006600009F05CCDA301920191D329833A834B8396
:100670005C8320936B0030936C0040936D0050932B
:100680006E00C501B401A301920180D349015A0152
:100690002093B2003093B3004093B4005093B50060
:1006A000C701B601A301920171D320938400309356
:1006B000850040938600509387001092B7001092F7
:1006C000B6001092C8001092C9001092CA00109291
:1006D000CB001092CC001092CD001092CE00109260
:1006E000CF001092D0001092D1001092D200109240
:1006F000D300CA01B90104D26B017C0169817A81FE
:100700008B819C81FDD1A70196010CD123E33AEFA7
:100710004EE85CE35AD1DC01CB01B05880939E00D7
:1007200090939F00A093A000B093A100C501B401D5
:10073000E7D1A7019601F6D023E33AEF4EE85CE358
:1007400044D1DC01CB01B0588093EE009093EF00D0
:10075000A093F000B093F10085E0E82EF12CF09228
:100760008300E0928200DACC80909E0090909F00FF
:10077000A090A000B090A100C090F400D090F5002F
:10078000E090F600F090F700A7019601C501B401D2
:1007900068D218162CF4A7019601C501B40104C053
:1007A000A5019401C701B60149D077D19B0177FF1C
:1007B00004C022273327261B370B2B30310514F0BA
:1007C000C29A01C0C29880918C0090918D00A09136
:1007D0008E00B0918F0040916B0050916C00609141
:1007E0006D0070916E0084179507A607B7075CF43B
:1007F000481B590B57FF03C0519541955109453F7F
:1008000051405CF40CC0841B950B97FF03C091957D
:1008100081959109853F914014F0C29A01C0C29818
:100820001093830000938200BFEF29E688E1B15066
:1008300020408040E1F700C0000070CC5058BB273A
:10084000AA270ED0D4C1C5D130F0CAD120F031F4DE
:100850009F3F11F41EF495C10EF4E095E7FB8BC1A8
:10086000E92FD6D180F3BA1762077307840795077B
:1008700018F071F49EF5EEC10EF4E0950B2EBA2F30
:10088000A02D0B01B90190010C01CA01A001112496
:10089000FF27591B99F0593F50F4503E68F11A1642
:1008A000F040A22F232F342F4427585FF3CF4695D3
:1008B00037952795A795F0405395C9F77EF41F16F5
:1008C000BA0B620B730B840BBAF09150A1F0FF0FBF
:1008D000BB1F661F771F881FC2F70EC0BA0F621FAB
:1008E000731F841F48F4879577956795B795F7959B
:1008F0009E3F08F0B3CF9395880F08F09927EE0F2D
:1009000097958795089565D158F080E891E009F4AE
:100910009EEF66D128F040E851E059F45EEF09C03F
:1009200030C198C1E92FE07873D168F3092E052A08
:10093000C1F3261737074807590738F00E2E07F876
:10094000E02569F0E025E0640AC0EF6307F8009451
:1009500007FADB01B9019D01DC01CA01AD01EF938A
:1009600043D045D10AD05F91552331F02BED3FE0C4
:1009700049E450FD49EC63CF0895DF93DD27B92F9B
:10098000BF7740E85FE31616170648075B0710F4C9
:10099000D92F6BD19F938F937F936F93CED1E6E244
:1009A000F0E0F2D024D12F913F914F915F916ED121
:1009B000DD2349F09058A2EA2AED3FE049EC5FE3DD
:1009C000D0785D274DDFDF9112C10CD010C108D166
:1009D00040F0FFD030F021F45F3F19F0CCC051114E
:1009E0003AC1CFC015D198F39923C9F35523B1F378
:1009F000951B550BBB27AA2762177307840738F08E
:100A00009F5F5F4F220F331F441FAA1FA9F333D0EC
:100A10000E2E3AF0E0E830D091505040E695001CA0
:100A2000CAF729D0FE2F27D0660F771F881FBB1F5C
:100A3000261737074807AB07B0E809F0BB0B802D36
:100A4000BF01FF2793585F4F2AF09E3F510568F082
:100A500092C001C15F3FECF3983EDCF38695779539
:100A60006795B795F7959F5FC9F7880F911D969584
:100A7000879597F90895E1E0660F771F881FBB1FE0
:100A8000621773078407BA0720F0621B730B840B8D
:100A9000BA0BEE1F88F7E095089504D06894B11161
:100AA000DAC00895BDD088F09F5790F0B92F9927EC
:100AB000B751A0F0D1F0660F771F881F991F1AF069
:100AC000BA95C9F712C0B13081F0C4D0B1E0089531
:100AD000C1C0672F782F8827B85F39F0B93FCCF3B2
:100AE000869577956795B395D9F73EF4909580955F
:100AF000709561957F4F8F4F9F4F0895E89409C07F
:100B000097FB3EF490958095709561957F4F8F4F40
:100B10009F4F9923A9F0F92F96E9BB279395F69556
:100B2000879577956795B795F111F8CFFAF4BB0FD4
:100B300011F460FF1BC06F5F7F4F8F4F9F4F16C038
:100B4000882311F096E911C0772321F09EE8872FC2
:100B5000762F05C0662371F096E8862F70E060E07E
:100B60002AF09A95660F771F881FDAF7880F9695F7
:100B7000879597F9089597F99F6780E870E060E09E
:100B800008959FEF80EC0895DF93CF931F930F9309
:100B9000FF92EF92DF927B018C01689405C0DA2E00
:100BA000EF0174D0FE01E894A5912591359145910E
:100BB0005591AEF3EF0154DEFE019701A801DA94DE
:100BC00079F7DF90EF90FF900F911F91CF91DF9118
:100BD000089500240A9416161706180609060895A3
:100BE00000240A9412161306140605060895092E09
:100BF0000394000C11F4882352F0BB0F40F4BF2B78
:100C000011F460FF04C06F5F7F4F8F4F9F4F0895B7
:100C100057FD9058440F551F59F05F3F71F04795AD
:100C2000880F97FB991F61F09F3F79F08795089592
:100C3000121613061406551FF2CF4695F1DF08C0B1
:100C4000161617061806991FF1CF869571056105CE
:100C500008940895E894BB2766277727CB0197F976
:100C600008956ED008F48FEF08959B01AC0160E009
:100C700070E080E89FE3A9CEACDF28F0B1DF18F088
:100C8000952309F078CF7DCF1124E5CFC1DFA0F304
:100C9000959FD1F3950F50E0551F629FF001729F11
:100CA000BB27F00DB11D639FAA27F00DB11DAA1F30
:100CB000649F6627B00DA11D661F829F2227B00D7D
:100CC000A11D621F739FB00DA11D621F839FA00D08
:100CD000611D221F749F3327A00D611D231F849F58
:100CE000600D211D822F762F6A2F11249F575040AF
:100CF0008AF0E1F088234AF0EE0FFF1FBB1F661F4A
:100D0000771F881F91505040A9F79E3F510570F002
:100D100032CFA1CF5F3FECF3983EDCF38695779519
:100D20006795B795F795E7959F5FC1F7FE2B880FFD
:100D3000911D9695879597F908959B01AC0124C064
:100D4000990F0008550FAA0BE0E8FEEF16161706DC
:100D5000E807F907C0F012161306E407F50798F044
:100D6000621B730B840B950B39F40A2661F0232B5D
:100D7000242B252B21F408950A2609F4A140A695D9
:100D80008FEF811D811D089581DF31CF052E97FBE7
:100D900016F400940FD057FD05D014D007FC02D0F4
:100DA00046F408C050954095309521953F4F4F4FE0
:100DB0005F4F089590958095709561957F4F8F4F07
:100DC0009F4F0895A1E21A2EAA1BBB1BFD010DC067
:100DD000AA1FBB1FEE1FFF1FA217B307E407F507EB
:100DE00020F0A21BB30BE40BF50B661F771F881FC7
:100DF000991F1A9469F760957095809590959B015D
:0C0E0000AC01BD01CF010895F894FFCFB4
:00000001FF
