:100000000C9434000C9451000C9451000C94510049
:100010000C9451000C9451000C9451000C9451001C
:100020000C9451000C9451000C9451000C9451000C
:100030000C9451000C9451000C9451000C945100FC
:100040000C9451000C9451000C9451000C945100EC
:100050000C9451000C9451000C9451000C945100DC
:100060000C9451000C94510011241FBECFEFD8E026
:10007000DEBFCDBF11E0A0E0B1E0E8EAF3E002C0EE
:1000800005900D92A430B107D9F721E0A4E0B1E0CA
:1000900001C01D92A930B207E1F70E94A2000C94A2
:1000A000D2010C9400008091BC0087FFFCCF089522
:1000B000E9EBF0E08081808388E48093B8000895C4
:1000C0000E94580084E48093BC00089584EA8093E1
:1000D000BC000E9453008091B900089584E9809388
:1000E000BC0008958093BB0084E88093BC000E940C
:1000F00053008091B9000895CF93C82F0E946600E5
:100100008C2FCF910C9472008093BB0084E8809375
:10011000BC000E9453008091B900089584E8809348
:10012000BC000E9453008091B9008091BB000895EB
:1001300084EC8093BC000E9453008091B9008091B0
:10014000BB00089510920501259A87B1806387B995
:10015000809164008F7780936400D2E0C0E211E068
:1001600004E080910501813031F138F0823009F4EA
:1001700094C0843009F4BAC0F6CF0E946000109396
:1001800005012FEF31EE44E0215030404040E1F7CF
:1001900000C0000084E090E02FEF34E34CE02150F9
:1001A00030404040E1F700C0000025B12C2725B9C0
:1001B000019791F7D6CF80E30E947C0080EA0E94ED
:1001C00084008FE50E94840080E00E94840080E02B
:1001D0000E94840080E00E94840080E00E948400ED
:1001E00080E00E9484000E946E0080E30E947C00F8
:1001F0008FE00E9484000E94660081E30E948400D8
:100200000E948E00809304010E946E008091040180
:10021000833381F484E195B19C2795B99FEF21EE5A
:1002200034E0915020403040E1F700C000008150A0
:1002300091F70AC02D9A4FEF87EA91E6415080402E
:100240009040E1F700C0000080E30E947C0087E05E
:100250000E94840081E30E947C000E948E008093B3
:10026000040183FF17C080E30E947C0088EA0E949B
:10027000840081E30E947C000E949800809300012A
:100280000E949800809301010E948E0080930201D9
:100290000E946E00D093050164CF80E30E947C0031
:1002A00087E00E94840081E30E947C000E948E000F
:1002B0008093040183FF55CF80E30E947C0088EA8D
:1002C0000E94840081E30E947C000E949800809339
:1002D00006010E949800809307010E948E0080937F
:1002E00008010E946E00009305013BCF809106013A
:1002F000992781950CF4909520910001821B91091A
:1003000027FD9395809784F084E195B19C2795B95A
:100310002FEF31EE44E0215030404040E1F700C083
:100320000000815091F73CC0809107019927819589
:100330000CF4909520910101821B910927FD939562
:10034000809784F084E195B19C2795B99FEF21EEC9
:1003500034E0915020403040E1F700C0000081506F
:1003600091F71EC080910801992781950CF4909512
:1003700020910201821B910927FD939580970CF42F
:1003800089CF84E195B19C2795B94FEF91EE24E098
:10039000415090402040E1F700C00000815091F7AB
:0803A0002D9878CFF894FFCFEF
:0403A8007F7F7F00D4
:00000001FF
