:100000000C9434000C9451000C9451000C94510049
:100010000C9451000C9451000C9451000C9451001C
:100020000C9451000C9451000C9451000C9451000C
:100030000C9451000C9451000C9451000C945100FC
:100040000C9451000C9451000C9451000C945100EC
:100050000C9451000C9451000C9451000C945100DC
:100060000C9451000C94510011241FBECFEFD8E026
:10007000DEBFCDBF11E0A0E0B1E0ECE9F3E002C0EB
:1000800005900D92A030B107D9F721E0A0E0B1E0D2
:1000900001C01D92A830B207E1F70E94D3000C9472
:1000A000CC010C9400009C0140E050E060E878E353
:1000B00081E090E00E94AA01DA01C9014097A109FC
:1000C000B109B695A795979587959C018F3F9105A6
:1000D00061F058F080E08F5F36952795369527952B
:1000E0002F3F310509F0B8F701C080E0E9EBF0E0FF
:1000F00090819370892B80832093B800089584E4C5
:100100008093BC0081E090E00E945300089584EA4F
:100110008093BC00ECEBF0E080818823ECF78091C9
:10012000B900089584E98093BC0008958093BB00D2
:1001300084E88093BC00ECEBF0E080818823ECF74E
:100140008091B9000895CF93C82F0E9487008C2F0B
:100150000E949600CF9108958093BB0084E880931D
:10016000BC00ECEBF0E080818823ECF78091B900D3
:10017000089584E88093BC00ECEBF0E08081882354
:10018000ECF78091B9008091BB00089584EC8093D6
:10019000BC00ECEBF0E080818823ECF78091B900A3
:1001A0008091BB00089510920101CFEFD2E0CC24E2
:1001B000C39402E011E06894DD24D2F80F2EF5E03C
:1001C000EF2EF1E0FF2EF02DC8B92FEF89E698E170
:1001D000215080409040E1F700C000008091010173
:1001E000813069F038F0823009F44CC0843009F471
:1001F00063C0EACF0E947F00C0920101E5CF80E397
:100200000E94A30080E20E94AC0081E30E94A30050
:100210000E94B900809300010E9492008091000129
:1002200088658093000180E30E94A30080E20E9421
:10023000AC00809100010E94AC000E94920080E31B
:100240000E94A30083E20E94AC0081E30E94A3000D
:100250000E94B900809300010E94920080910001E9
:10026000806A8093000180E30E94A30080E20E94E4
:10027000AC00809100010E94AC000E949200D093DB
:100280000101A2CF80E30E94A30088EA0E94AC0093
:1002900081E30E94A3000E94C600F80180830E94AF
:1002A000C600F80181830E94B900F80182830E9490
:1002B0009200D092010188CFFFEF29E688E1F1504A
:1002C00020408040E1F700C0000095B180E289271E
:1002D00085B9F8012081822F022E000C990BF701BD
:1002E0003081831B910937FD939581972CF095B14F
:1002F00080E2892785B92BC0F8013181832F032E35
:10030000000C990BF7014181841B910947FD9395DE
:1003100081972CF095B180E2892785B918C0F80142
:100320004281842F042E000C990BF7015281851B0A
:10033000910957FD939581972CF095B180E289271B
:1003400085B905C0F7012083318342832D98D0936E
:1003500001013ACFA1E21A2EAA1BBB1BFD010DC061
:10036000AA1FBB1FEE1FFF1FA217B307E407F50765
:1003700020F0A21BB30BE40BF50B661F771F881F41
:10038000991F1A9469F760957095809590959B01D7
:0C039000AC01BD01CF010895F894FFCF2F
:00000001FF
