:100000000C9434000C9451000C9451000C94510049
:100010000C9451000C9451000C9451000C9451001C
:100020000C9451000C9451000C9451000C9451000C
:100030000C9451000C9451000C9451000C945100FC
:100040000C9451000C9451000C9451000C945100EC
:100050000C9451000C9451000C9451000C945100DC
:100060000C9451000C94510011241FBECFEFD8E026
:10007000DEBFCDBF11E0A0E0B1E0E4E9F3E002C0F3
:1000800005900D92A030B107D9F721E0A0E0B1E0D2
:1000900001C01D92A830B207E1F70E94D9000C946C
:1000A000C8010C9400009C0140E050E060E177E260
:1000B00080E090E00E948701BA01A90140515109F6
:1000C00061097109DB01CA011AF40196A11DB11D74
:1000D000B595A795979587958F3F910561F058F055
:1000E00020E02F5F96958795969587958F3F910590
:1000F00009F0B8F701C020E0E9EBF0E090819370DF
:10010000292B20838093B800089584E48093BC0059
:1001100081E090E00E945300089584EA8093BC003F
:10012000ECEBF0E080818823ECF78091B900089532
:1001300084E98093BC0008958093BB0084E8809399
:10014000BC00ECEBF0E080818823ECF78091B900F3
:100150000895CF93C82F0E948D008C2F0E949C0081
:10016000CF9108958093BB0084E88093BC00ECEBB2
:10017000F0E080818823ECF78091B900089584E84D
:100180008093BC00ECEBF0E080818823ECF7809159
:10019000B9008091BB00089584EC8093BC00ECEB27
:1001A000F0E080818823ECF78091B9008091BB005A
:1001B0000895109201016894FF24F1F8DD24D3948E
:1001C000C2E0D1E06894EE24E2F805E011E080910D
:1001D0000101813069F038F0823009F44CC084307C
:1001E00009F460C0F6CF0E948500D0920101EFCFE4
:1001F00080E30E94A90080E20E94B20081E30E9495
:10020000A9000E94BF00809300010E949800809185
:10021000000188658093000180E30E94A90080E2CC
:100220000E94B200809100010E94B2000E949800DA
:1002300080E30E94A90083E20E94B20081E30E9451
:10024000A9000E94BF00809300010E949800809145
:100250000001806A8093000180E30E94A90080E28F
:100260000E94B200809100010E94B2000E9498009A
:10027000F0920101ACCF80E30E94A90088EA0E94BD
:10028000B20081E30E94A9000E94CC0088830E94F2
:10029000CC0089830E94BF008A830E949800E0926C
:1002A000010195CF2881822F022E000C990BF801B5
:1002B0003081831B910937FD9395819714F02D9A16
:1002C00023C03981832F032E000C990BF801418143
:1002D000841B910947FD9395819714F02D9A14C0C2
:1002E0004A81842F042E000C990BF8015281851B42
:1002F000910957FD9395819714F02D9A05C0F80147
:100300002083318342832D98F092010160CF052E26
:1003100097FB1EF400940E949E0157FD07D00E9497
:10032000A60107FC03D04EF40C949E015095409515
:10033000309521953F4F4F4F5F4F08959095809591
:10034000709561957F4F8F4F9F4F0895A1E21A2EB0
:10035000AA1BBB1BFD010DC0AA1FBB1FEE1FFF1F69
:10036000A217B307E407F50720F0A21BB30BE40BB9
:10037000F50B661F771F881F991F1A9469F7609500
:100380007095809590959B01AC01BD01CF010895BA
:04039000F894FFCF0F
:00000001FF
